{
  "contractName": "HealthData",
  "abi": [
    {
      "anonymous": false,
      "inputs": [
        {
          "indexed": true,
          "internalType": "address",
          "name": "patientAddress",
          "type": "address"
        },
        {
          "indexed": true,
          "internalType": "address",
          "name": "doctorAddress",
          "type": "address"
        },
        {
          "indexed": true,
          "internalType": "uint256",
          "name": "healthRecordId",
          "type": "uint256"
        },
        {
          "indexed": false,
          "internalType": "uint256",
          "name": "height",
          "type": "uint256"
        },
        {
          "indexed": false,
          "internalType": "uint256",
          "name": "weight",
          "type": "uint256"
        },
        {
          "indexed": false,
          "internalType": "string",
          "name": "bloodType",
          "type": "string"
        },
        {
          "indexed": false,
          "internalType": "string",
          "name": "treatmentHash",
          "type": "string"
        }
      ],
      "name": "HealthRecordCreated",
      "type": "event"
    },
    {
      "anonymous": false,
      "inputs": [
        {
          "indexed": true,
          "internalType": "address",
          "name": "patientAddress",
          "type": "address"
        },
        {
          "indexed": false,
          "internalType": "string",
          "name": "name",
          "type": "string"
        },
        {
          "indexed": false,
          "internalType": "uint256",
          "name": "birthDate",
          "type": "uint256"
        },
        {
          "indexed": false,
          "internalType": "string",
          "name": "homeaddress",
          "type": "string"
        },
        {
          "indexed": false,
          "internalType": "string",
          "name": "email",
          "type": "string"
        },
        {
          "indexed": false,
          "internalType": "string",
          "name": "telephone",
          "type": "string"
        }
      ],
      "name": "PatientCreated",
      "type": "event"
    },
    {
      "inputs": [
        {
          "internalType": "address",
          "name": "",
          "type": "address"
        }
      ],
      "name": "doctors",
      "outputs": [
        {
          "internalType": "address",
          "name": "doctorAddress",
          "type": "address"
        },
        {
          "internalType": "string",
          "name": "name",
          "type": "string"
        },
        {
          "internalType": "string",
          "name": "hospital",
          "type": "string"
        },
        {
          "internalType": "bool",
          "name": "authorized",
          "type": "bool"
        }
      ],
      "stateMutability": "view",
      "type": "function",
      "constant": true
    },
    {
      "inputs": [
        {
          "internalType": "address",
          "name": "",
          "type": "address"
        },
        {
          "internalType": "uint256",
          "name": "",
          "type": "uint256"
        }
      ],
      "name": "healthRecords",
      "outputs": [
        {
          "internalType": "uint256",
          "name": "healthRecordId",
          "type": "uint256"
        },
        {
          "internalType": "uint256",
          "name": "height",
          "type": "uint256"
        },
        {
          "internalType": "uint256",
          "name": "weight",
          "type": "uint256"
        },
        {
          "internalType": "string",
          "name": "bloodType",
          "type": "string"
        },
        {
          "internalType": "string",
          "name": "treatmentHash",
          "type": "string"
        },
        {
          "internalType": "address",
          "name": "doctorAddress",
          "type": "address"
        }
      ],
      "stateMutability": "view",
      "type": "function",
      "constant": true
    },
    {
      "inputs": [],
      "name": "owner",
      "outputs": [
        {
          "internalType": "address",
          "name": "",
          "type": "address"
        }
      ],
      "stateMutability": "view",
      "type": "function",
      "constant": true
    },
    {
      "inputs": [
        {
          "internalType": "address",
          "name": "",
          "type": "address"
        }
      ],
      "name": "patients",
      "outputs": [
        {
          "internalType": "address",
          "name": "patientAddress",
          "type": "address"
        },
        {
          "internalType": "string",
          "name": "name",
          "type": "string"
        },
        {
          "internalType": "uint256",
          "name": "birthDate",
          "type": "uint256"
        },
        {
          "internalType": "string",
          "name": "homeaddress",
          "type": "string"
        },
        {
          "internalType": "string",
          "name": "email",
          "type": "string"
        },
        {
          "internalType": "string",
          "name": "telephone",
          "type": "string"
        },
        {
          "internalType": "bool",
          "name": "created",
          "type": "bool"
        }
      ],
      "stateMutability": "view",
      "type": "function",
      "constant": true
    },
    {
      "inputs": [
        {
          "internalType": "string",
          "name": "_name",
          "type": "string"
        },
        {
          "internalType": "uint256",
          "name": "_birthdate",
          "type": "uint256"
        },
        {
          "internalType": "string",
          "name": "_homeaddress",
          "type": "string"
        },
        {
          "internalType": "string",
          "name": "_email",
          "type": "string"
        },
        {
          "internalType": "string",
          "name": "_telephone",
          "type": "string"
        }
      ],
      "name": "createPatient",
      "outputs": [],
      "stateMutability": "nonpayable",
      "type": "function"
    },
    {
      "inputs": [
        {
          "internalType": "address",
          "name": "_patientAddress",
          "type": "address"
        },
        {
          "internalType": "uint256",
          "name": "_healthRecordId",
          "type": "uint256"
        },
        {
          "internalType": "uint256",
          "name": "_height",
          "type": "uint256"
        },
        {
          "internalType": "uint256",
          "name": "_weight",
          "type": "uint256"
        },
        {
          "internalType": "string",
          "name": "_bloodType",
          "type": "string"
        },
        {
          "internalType": "string",
          "name": "_treatmentHash",
          "type": "string"
        }
      ],
      "name": "createHealthRecord",
      "outputs": [],
      "stateMutability": "nonpayable",
      "type": "function"
    },
    {
      "inputs": [
        {
          "internalType": "string",
          "name": "_name",
          "type": "string"
        },
        {
          "internalType": "string",
          "name": "_hospital",
          "type": "string"
        }
      ],
      "name": "createDoctor",
      "outputs": [],
      "stateMutability": "nonpayable",
      "type": "function"
    },
    {
      "inputs": [
        {
          "internalType": "address",
          "name": "_doctorAddress",
          "type": "address"
        }
      ],
      "name": "authorizeDoctor",
      "outputs": [],
      "stateMutability": "nonpayable",
      "type": "function"
    },
    {
      "inputs": [
        {
          "internalType": "address",
          "name": "_doctorAddress",
          "type": "address"
        }
      ],
      "name": "revokeDoctor",
      "outputs": [],
      "stateMutability": "nonpayable",
      "type": "function"
    },
    {
      "inputs": [
        {
          "internalType": "address",
          "name": "patientAddress",
          "type": "address"
        }
      ],
      "name": "viewPatient",
      "outputs": [
        {
          "internalType": "string",
          "name": "",
          "type": "string"
        },
        {
          "internalType": "uint256",
          "name": "",
          "type": "uint256"
        },
        {
          "internalType": "string",
          "name": "",
          "type": "string"
        },
        {
          "internalType": "string",
          "name": "",
          "type": "string"
        },
        {
          "internalType": "string",
          "name": "",
          "type": "string"
        },
        {
          "components": [
            {
              "internalType": "uint256",
              "name": "healthRecordId",
              "type": "uint256"
            },
            {
              "internalType": "uint256",
              "name": "height",
              "type": "uint256"
            },
            {
              "internalType": "uint256",
              "name": "weight",
              "type": "uint256"
            },
            {
              "internalType": "string",
              "name": "bloodType",
              "type": "string"
            },
            {
              "internalType": "string",
              "name": "treatmentHash",
              "type": "string"
            },
            {
              "internalType": "address",
              "name": "doctorAddress",
              "type": "address"
            }
          ],
          "internalType": "struct HealthData.HealthRecord[]",
          "name": "",
          "type": "tuple[]"
        }
      ],
      "stateMutability": "view",
      "type": "function",
      "constant": true
    },
    {
      "inputs": [
        {
          "internalType": "address",
          "name": "_patientAddress",
          "type": "address"
        }
      ],
      "name": "getDoctorRecords",
      "outputs": [
        {
          "components": [
            {
              "internalType": "uint256",
              "name": "healthRecordId",
              "type": "uint256"
            },
            {
              "internalType": "uint256",
              "name": "height",
              "type": "uint256"
            },
            {
              "internalType": "uint256",
              "name": "weight",
              "type": "uint256"
            },
            {
              "internalType": "string",
              "name": "bloodType",
              "type": "string"
            },
            {
              "internalType": "string",
              "name": "treatmentHash",
              "type": "string"
            },
            {
              "internalType": "address",
              "name": "doctorAddress",
              "type": "address"
            }
          ],
          "internalType": "struct HealthData.HealthRecord[]",
          "name": "",
          "type": "tuple[]"
        }
      ],
      "stateMutability": "view",
      "type": "function",
      "constant": true
    }
  ],
  "bytecode": "0x608060405234801561001057600080fd5b50612959806100206000396000f3fe608060405234801561001057600080fd5b50600436106100a95760003560e01c806385b852c11161007157806385b852c11461016d5780638da5cb5b146101a257806398e0c67b146101c0578063a65dd4ae146101dc578063a9583c22146101f8578063f7dbcb531461022b576100a9565b80630416af27146100ae5780630869cfbc146100ca57806316d07e5c146101005780631ae738b81461011c57806358c9202c14610151575b600080fd5b6100c860048036038101906100c39190611a73565b61025b565b005b6100e460048036038101906100df9190611a73565b610348565b6040516100f79796959493929190611b73565b60405180910390f35b61011a60048036038101906101159190611d5f565b6105d7565b005b61013660048036038101906101319190611a73565b61077c565b60405161014896959493929190612004565b60405180910390f35b61016b60048036038101906101669190611a73565b610ddc565b005b61018760048036038101906101829190612088565b610ec9565b604051610199969594939291906120c8565b60405180910390f35b6101aa611052565b6040516101b79190612137565b60405180910390f35b6101da60048036038101906101d59190612152565b611076565b005b6101f660048036038101906101f191906121ca565b611219565b005b610212600480360381019061020d9190611a73565b611540565b604051610222949392919061228f565b60405180910390f35b61024560048036038101906102409190611a73565b6116ad565b60405161025291906122e2565b60405180910390f35b600360003373ffffffffffffffffffffffffffffffffffffffff1673ffffffffffffffffffffffffffffffffffffffff16815260200190815260200160002060030160009054906101000a900460ff166102ea576040517f08c379a00000000000000000000000000000000000000000000000000000000081526004016102e190612350565b60405180910390fd5b6000600360008373ffffffffffffffffffffffffffffffffffffffff1673ffffffffffffffffffffffffffffffffffffffff16815260200190815260200160002060030160006101000a81548160ff02191690831515021790555050565b60016020528060005260406000206000915090508060000160009054906101000a900473ffffffffffffffffffffffffffffffffffffffff16908060010180546103919061239f565b80601f01602080910402602001604051908101604052809291908181526020018280546103bd9061239f565b801561040a5780601f106103df5761010080835404028352916020019161040a565b820191906000526020600020905b8154815290600101906020018083116103ed57829003601f168201915b5050505050908060020154908060030180546104259061239f565b80601f01602080910402602001604051908101604052809291908181526020018280546104519061239f565b801561049e5780601f106104735761010080835404028352916020019161049e565b820191906000526020600020905b81548152906001019060200180831161048157829003601f168201915b5050505050908060040180546104b39061239f565b80601f01602080910402602001604051908101604052809291908181526020018280546104df9061239f565b801561052c5780601f106105015761010080835404028352916020019161052c565b820191906000526020600020905b81548152906001019060200180831161050f57829003601f168201915b5050505050908060050180546105419061239f565b80601f016020809104026020016040519081016040528092919081815260200182805461056d9061239f565b80156105ba5780601f1061058f576101008083540402835291602001916105ba565b820191906000526020600020905b81548152906001019060200180831161059d57829003601f168201915b5050505050908060060160009054906101000a900460ff16905087565b60001515600160003373ffffffffffffffffffffffffffffffffffffffff1673ffffffffffffffffffffffffffffffffffffffff16815260200190815260200160002060060160009054906101000a900460ff1615151461066d576040517f08c379a00000000000000000000000000000000000000000000000000000000081526004016106649061241c565b60405180910390fd5b6000600160003373ffffffffffffffffffffffffffffffffffffffff1673ffffffffffffffffffffffffffffffffffffffff1681526020019081526020016000209050858160010190816106c191906125e8565b50848160020181905550838160030190816106dc91906125e8565b50828160040190816106ee91906125e8565b508181600501908161070091906125e8565b5060018160060160006101000a81548160ff0219169083151502179055503373ffffffffffffffffffffffffffffffffffffffff167f49c785a1d0f532825c84bc2023b00eb8cc266f4b0ce917fa5c388afcf4ebfe26878787878760405161076c9594939291906126ba565b60405180910390a2505050505050565b6060600060608060608060011515600160008973ffffffffffffffffffffffffffffffffffffffff1673ffffffffffffffffffffffffffffffffffffffff16815260200190815260200160002060060160009054906101000a900460ff1615151461081c576040517f08c379a000000000000000000000000000000000000000000000000000000000815260040161081390612775565b60405180910390fd5b600160008873ffffffffffffffffffffffffffffffffffffffff1673ffffffffffffffffffffffffffffffffffffffff168152602001908152602001600020600101600160008973ffffffffffffffffffffffffffffffffffffffff1673ffffffffffffffffffffffffffffffffffffffff16815260200190815260200160002060020154600160008a73ffffffffffffffffffffffffffffffffffffffff1673ffffffffffffffffffffffffffffffffffffffff168152602001908152602001600020600301600160008b73ffffffffffffffffffffffffffffffffffffffff1673ffffffffffffffffffffffffffffffffffffffff168152602001908152602001600020600401600160008c73ffffffffffffffffffffffffffffffffffffffff1673ffffffffffffffffffffffffffffffffffffffff168152602001908152602001600020600501600260008d73ffffffffffffffffffffffffffffffffffffffff1673ffffffffffffffffffffffffffffffffffffffff1681526020019081526020016000208580546109b29061239f565b80601f01602080910402602001604051908101604052809291908181526020018280546109de9061239f565b8015610a2b5780601f10610a0057610100808354040283529160200191610a2b565b820191906000526020600020905b815481529060010190602001808311610a0e57829003601f168201915b50505050509550838054610a3e9061239f565b80601f0160208091040260200160405190810160405280929190818152602001828054610a6a9061239f565b8015610ab75780601f10610a8c57610100808354040283529160200191610ab7565b820191906000526020600020905b815481529060010190602001808311610a9a57829003601f168201915b50505050509350828054610aca9061239f565b80601f0160208091040260200160405190810160405280929190818152602001828054610af69061239f565b8015610b435780601f10610b1857610100808354040283529160200191610b43565b820191906000526020600020905b815481529060010190602001808311610b2657829003601f168201915b50505050509250818054610b569061239f565b80601f0160208091040260200160405190810160405280929190818152602001828054610b829061239f565b8015610bcf5780601f10610ba457610100808354040283529160200191610bcf565b820191906000526020600020905b815481529060010190602001808311610bb257829003601f168201915b5050505050915080805480602002602001604051908101604052809291908181526020016000905b82821015610dc157838290600052602060002090600602016040518060c0016040529081600082015481526020016001820154815260200160028201548152602001600382018054610c489061239f565b80601f0160208091040260200160405190810160405280929190818152602001828054610c749061239f565b8015610cc15780601f10610c9657610100808354040283529160200191610cc1565b820191906000526020600020905b815481529060010190602001808311610ca457829003601f168201915b50505050508152602001600482018054610cda9061239f565b80601f0160208091040260200160405190810160405280929190818152602001828054610d069061239f565b8015610d535780601f10610d2857610100808354040283529160200191610d53565b820191906000526020600020905b815481529060010190602001808311610d3657829003601f168201915b505050505081526020016005820160009054906101000a900473ffffffffffffffffffffffffffffffffffffffff1673ffffffffffffffffffffffffffffffffffffffff1673ffffffffffffffffffffffffffffffffffffffff168152505081526020019060010190610bf7565b50505050905095509550955095509550955091939550919395565b600360003373ffffffffffffffffffffffffffffffffffffffff1673ffffffffffffffffffffffffffffffffffffffff16815260200190815260200160002060030160009054906101000a900460ff16610e6b576040517f08c379a0000000000000000000000000000000000000000000000000000000008152600401610e6290612350565b60405180910390fd5b6001600360008373ffffffffffffffffffffffffffffffffffffffff1673ffffffffffffffffffffffffffffffffffffffff16815260200190815260200160002060030160006101000a81548160ff02191690831515021790555050565b60026020528160005260406000208181548110610ee557600080fd5b906000526020600020906006020160009150915050806000015490806001015490806002015490806003018054610f1b9061239f565b80601f0160208091040260200160405190810160405280929190818152602001828054610f479061239f565b8015610f945780601f10610f6957610100808354040283529160200191610f94565b820191906000526020600020905b815481529060010190602001808311610f7757829003601f168201915b505050505090806004018054610fa99061239f565b80601f0160208091040260200160405190810160405280929190818152602001828054610fd59061239f565b80156110225780601f10610ff757610100808354040283529160200191611022565b820191906000526020600020905b81548152906001019060200180831161100557829003601f168201915b5050505050908060050160009054906101000a900473ffffffffffffffffffffffffffffffffffffffff16905086565b60008054906101000a900473ffffffffffffffffffffffffffffffffffffffff1681565b600360003373ffffffffffffffffffffffffffffffffffffffff1673ffffffffffffffffffffffffffffffffffffffff16815260200190815260200160002060030160009054906101000a900460ff1615611106576040517f08c379a00000000000000000000000000000000000000000000000000000000081526004016110fd906127e1565b60405180910390fd5b60405180608001604052803373ffffffffffffffffffffffffffffffffffffffff16815260200183815260200182815260200160011515815250600360003373ffffffffffffffffffffffffffffffffffffffff1673ffffffffffffffffffffffffffffffffffffffff16815260200190815260200160002060008201518160000160006101000a81548173ffffffffffffffffffffffffffffffffffffffff021916908373ffffffffffffffffffffffffffffffffffffffff16021790555060208201518160010190816111db91906125e8565b5060408201518160020190816111f191906125e8565b5060608201518160030160006101000a81548160ff0219169083151502179055509050505050565b600360003373ffffffffffffffffffffffffffffffffffffffff1673ffffffffffffffffffffffffffffffffffffffff16815260200190815260200160002060030160009054906101000a900460ff166112a8576040517f08c379a000000000000000000000000000000000000000000000000000000000815260040161129f90612350565b60405180910390fd5b600160008773ffffffffffffffffffffffffffffffffffffffff1673ffffffffffffffffffffffffffffffffffffffff16815260200190815260200160002060060160009054906101000a900460ff16611337576040517f08c379a000000000000000000000000000000000000000000000000000000000815260040161132e9061284d565b60405180910390fd5b6001600260008873ffffffffffffffffffffffffffffffffffffffff1673ffffffffffffffffffffffffffffffffffffffff16815260200190815260200160002080549050611386919061289c565b945060006040518060c001604052808781526020018681526020018581526020018481526020018381526020013373ffffffffffffffffffffffffffffffffffffffff168152509050600260008873ffffffffffffffffffffffffffffffffffffffff1673ffffffffffffffffffffffffffffffffffffffff168152602001908152602001600020819080600181540180825580915050600190039060005260206000209060060201600090919091909150600082015181600001556020820151816001015560408201518160020155606082015181600301908161146b91906125e8565b50608082015181600401908161148191906125e8565b5060a08201518160050160006101000a81548173ffffffffffffffffffffffffffffffffffffffff021916908373ffffffffffffffffffffffffffffffffffffffff1602179055505050853373ffffffffffffffffffffffffffffffffffffffff168873ffffffffffffffffffffffffffffffffffffffff167f8f76523073bb7a70875222be822b505713c686cd62333fec1a9d8c692668bdd38888888860405161152f94939291906128d0565b60405180910390a450505050505050565b60036020528060005260406000206000915090508060000160009054906101000a900473ffffffffffffffffffffffffffffffffffffffff16908060010180546115899061239f565b80601f01602080910402602001604051908101604052809291908181526020018280546115b59061239f565b80156116025780601f106115d757610100808354040283529160200191611602565b820191906000526020600020905b8154815290600101906020018083116115e557829003601f168201915b5050505050908060020180546116179061239f565b80601f01602080910402602001604051908101604052809291908181526020018280546116439061239f565b80156116905780601f1061166557610100808354040283529160200191611690565b820191906000526020600020905b81548152906001019060200180831161167357829003601f168201915b5050505050908060030160009054906101000a900460ff16905084565b6060600360003373ffffffffffffffffffffffffffffffffffffffff1673ffffffffffffffffffffffffffffffffffffffff16815260200190815260200160002060030160009054906101000a900460ff1661173e576040517f08c379a000000000000000000000000000000000000000000000000000000000815260040161173590612350565b60405180910390fd5b600160008373ffffffffffffffffffffffffffffffffffffffff1673ffffffffffffffffffffffffffffffffffffffff16815260200190815260200160002060060160009054906101000a900460ff166117cd576040517f08c379a00000000000000000000000000000000000000000000000000000000081526004016117c490612775565b60405180910390fd5b600260008373ffffffffffffffffffffffffffffffffffffffff1673ffffffffffffffffffffffffffffffffffffffff168152602001908152602001600020805480602002602001604051908101604052809291908181526020016000905b828210156119f657838290600052602060002090600602016040518060c001604052908160008201548152602001600182015481526020016002820154815260200160038201805461187d9061239f565b80601f01602080910402602001604051908101604052809291908181526020018280546118a99061239f565b80156118f65780601f106118cb576101008083540402835291602001916118f6565b820191906000526020600020905b8154815290600101906020018083116118d957829003601f168201915b5050505050815260200160048201805461190f9061239f565b80601f016020809104026020016040519081016040528092919081815260200182805461193b9061239f565b80156119885780601f1061195d57610100808354040283529160200191611988565b820191906000526020600020905b81548152906001019060200180831161196b57829003601f168201915b505050505081526020016005820160009054906101000a900473ffffffffffffffffffffffffffffffffffffffff1673ffffffffffffffffffffffffffffffffffffffff1673ffffffffffffffffffffffffffffffffffffffff16815250508152602001906001019061182c565b505050509050919050565b6000604051905090565b600080fd5b600080fd5b600073ffffffffffffffffffffffffffffffffffffffff82169050919050565b6000611a4082611a15565b9050919050565b611a5081611a35565b8114611a5b57600080fd5b50565b600081359050611a6d81611a47565b92915050565b600060208284031215611a8957611a88611a0b565b5b6000611a9784828501611a5e565b91505092915050565b611aa981611a35565b82525050565b600081519050919050565b600082825260208201905092915050565b60005b83811015611ae9578082015181840152602081019050611ace565b60008484015250505050565b6000601f19601f8301169050919050565b6000611b1182611aaf565b611b1b8185611aba565b9350611b2b818560208601611acb565b611b3481611af5565b840191505092915050565b6000819050919050565b611b5281611b3f565b82525050565b60008115159050919050565b611b6d81611b58565b82525050565b600060e082019050611b88600083018a611aa0565b8181036020830152611b9a8189611b06565b9050611ba96040830188611b49565b8181036060830152611bbb8187611b06565b90508181036080830152611bcf8186611b06565b905081810360a0830152611be38185611b06565b9050611bf260c0830184611b64565b98975050505050505050565b600080fd5b600080fd5b7f4e487b7100000000000000000000000000000000000000000000000000000000600052604160045260246000fd5b611c4082611af5565b810181811067ffffffffffffffff82111715611c5f57611c5e611c08565b5b80604052505050565b6000611c72611a01565b9050611c7e8282611c37565b919050565b600067ffffffffffffffff821115611c9e57611c9d611c08565b5b611ca782611af5565b9050602081019050919050565b82818337600083830152505050565b6000611cd6611cd184611c83565b611c68565b905082815260208101848484011115611cf257611cf1611c03565b5b611cfd848285611cb4565b509392505050565b600082601f830112611d1a57611d19611bfe565b5b8135611d2a848260208601611cc3565b91505092915050565b611d3c81611b3f565b8114611d4757600080fd5b50565b600081359050611d5981611d33565b92915050565b600080600080600060a08688031215611d7b57611d7a611a0b565b5b600086013567ffffffffffffffff811115611d9957611d98611a10565b5b611da588828901611d05565b9550506020611db688828901611d4a565b945050604086013567ffffffffffffffff811115611dd757611dd6611a10565b5b611de388828901611d05565b935050606086013567ffffffffffffffff811115611e0457611e03611a10565b5b611e1088828901611d05565b925050608086013567ffffffffffffffff811115611e3157611e30611a10565b5b611e3d88828901611d05565b9150509295509295909350565b600081519050919050565b600082825260208201905092915050565b6000819050602082019050919050565b611e7f81611b3f565b82525050565b600082825260208201905092915050565b6000611ea182611aaf565b611eab8185611e85565b9350611ebb818560208601611acb565b611ec481611af5565b840191505092915050565b611ed881611a35565b82525050565b600060c083016000830151611ef66000860182611e76565b506020830151611f096020860182611e76565b506040830151611f1c6040860182611e76565b5060608301518482036060860152611f348282611e96565b91505060808301518482036080860152611f4e8282611e96565b91505060a0830151611f6360a0860182611ecf565b508091505092915050565b6000611f7a8383611ede565b905092915050565b6000602082019050919050565b6000611f9a82611e4a565b611fa48185611e55565b935083602082028501611fb685611e66565b8060005b85811015611ff25784840389528151611fd38582611f6e565b9450611fde83611f82565b925060208a01995050600181019050611fba565b50829750879550505050505092915050565b600060c082019050818103600083015261201e8189611b06565b905061202d6020830188611b49565b818103604083015261203f8187611b06565b905081810360608301526120538186611b06565b905081810360808301526120678185611b06565b905081810360a083015261207b8184611f8f565b9050979650505050505050565b6000806040838503121561209f5761209e611a0b565b5b60006120ad85828601611a5e565b92505060206120be85828601611d4a565b9150509250929050565b600060c0820190506120dd6000830189611b49565b6120ea6020830188611b49565b6120f76040830187611b49565b81810360608301526121098186611b06565b9050818103608083015261211d8185611b06565b905061212c60a0830184611aa0565b979650505050505050565b600060208201905061214c6000830184611aa0565b92915050565b6000806040838503121561216957612168611a0b565b5b600083013567ffffffffffffffff81111561218757612186611a10565b5b61219385828601611d05565b925050602083013567ffffffffffffffff8111156121b4576121b3611a10565b5b6121c085828601611d05565b9150509250929050565b60008060008060008060c087890312156121e7576121e6611a0b565b5b60006121f589828a01611a5e565b965050602061220689828a01611d4a565b955050604061221789828a01611d4a565b945050606061222889828a01611d4a565b935050608087013567ffffffffffffffff81111561224957612248611a10565b5b61225589828a01611d05565b92505060a087013567ffffffffffffffff81111561227657612275611a10565b5b61228289828a01611d05565b9150509295509295509295565b60006080820190506122a46000830187611aa0565b81810360208301526122b68186611b06565b905081810360408301526122ca8185611b06565b90506122d96060830184611b64565b95945050505050565b600060208201905081810360008301526122fc8184611f8f565b905092915050565b7f596f7520617265206e6f7420616e20617574686f72697a656420646f63746f72600082015250565b600061233a602083611aba565b915061234582612304565b602082019050919050565b600060208201905081810360008301526123698161232d565b9050919050565b7f4e487b7100000000000000000000000000000000000000000000000000000000600052602260045260246000fd5b600060028204905060018216806123b757607f821691505b6020821081036123ca576123c9612370565b5b50919050565b7f50617469656e74206964656e7469747920616c72656164792065786973747300600082015250565b6000612406601f83611aba565b9150612411826123d0565b602082019050919050565b60006020820190508181036000830152612435816123f9565b9050919050565b60008190508160005260206000209050919050565b60006020601f8301049050919050565b600082821b905092915050565b60006008830261249e7fffffffffffffffffffffffffffffffffffffffffffffffffffffffffffffffff82612461565b6124a88683612461565b95508019841693508086168417925050509392505050565b6000819050919050565b60006124e56124e06124db84611b3f565b6124c0565b611b3f565b9050919050565b6000819050919050565b6124ff836124ca565b61251361250b826124ec565b84845461246e565b825550505050565b600090565b61252861251b565b6125338184846124f6565b505050565b5b818110156125575761254c600082612520565b600181019050612539565b5050565b601f82111561259c5761256d8161243c565b61257684612451565b81016020851015612585578190505b61259961259185612451565b830182612538565b50505b505050565b600082821c905092915050565b60006125bf600019846008026125a1565b1980831691505092915050565b60006125d883836125ae565b9150826002028217905092915050565b6125f182611aaf565b67ffffffffffffffff81111561260a57612609611c08565b5b612614825461239f565b61261f82828561255b565b600060209050601f8311600181146126525760008415612640578287015190505b61264a85826125cc565b8655506126b2565b601f1984166126608661243c565b60005b8281101561268857848901518255600182019150602085019450602081019050612663565b868310156126a557848901516126a1601f8916826125ae565b8355505b6001600288020188555050505b505050505050565b600060a08201905081810360008301526126d48188611b06565b90506126e36020830187611b49565b81810360408301526126f58186611b06565b905081810360608301526127098185611b06565b9050818103608083015261271d8184611b06565b90509695505050505050565b7f50617469656e7420646f6573206e6f7420657869737400000000000000000000600082015250565b600061275f601683611aba565b915061276a82612729565b602082019050919050565b6000602082019050818103600083015261278e81612752565b9050919050565b7f446f63746f7220616c7265616479206578697374730000000000000000000000600082015250565b60006127cb601583611aba565b91506127d682612795565b602082019050919050565b600060208201905081810360008301526127fa816127be565b9050919050565b7f5468652070617469656e74206973206e6f742072656769737465726564000000600082015250565b6000612837601d83611aba565b915061284282612801565b602082019050919050565b600060208201905081810360008301526128668161282a565b9050919050565b7f4e487b7100000000000000000000000000000000000000000000000000000000600052601160045260246000fd5b60006128a782611b3f565b91506128b283611b3f565b92508282019050808211156128ca576128c961286d565b5b92915050565b60006080820190506128e56000830187611b49565b6128f26020830186611b49565b81810360408301526129048185611b06565b905081810360608301526129188184611b06565b90509594505050505056fea2646970667358221220ee821f2ee6e4e31cba92b7b4328ac6f90afbf9fd7009e45e3cee3d11d91fe74e64736f6c63430008130033",
  "immutableReferences": {},
  "source": "// SPDX-License-Identifier: MIT\npragma solidity ^0.8.0;\npragma experimental ABIEncoderV2;\n\n\ncontract HealthData {\n  address public owner;\n     \n   struct Patient {\n        address patientAddress;\n        string name;\n        uint256 birthDate;\n        string homeaddress;\n        string email;\n        string telephone;\n        bool created;\n        //HealthRecord[] HealthRecords;\n\n    }\n    struct HealthRecord {\n    uint256 healthRecordId;    \n    uint256 height;             // height in centimeters\n    uint256 weight;             // weight in kilograms\n    string bloodType;           // blood type\n    string treatmentHash;\n    address doctorAddress;\n}\n struct Doctor {\n        address doctorAddress;\n        string name;\n        string hospital;\n        bool authorized;\n    }\nmapping(address => Patient) public patients;\nmapping(address => HealthRecord[]) public healthRecords;\nmapping(address => Doctor) public doctors;\n\nevent PatientCreated(address indexed patientAddress, string name, uint256 birthDate, string homeaddress, string email, string telephone);\nfunction createPatient(string memory _name, uint256 _birthdate, string memory _homeaddress, string memory _email, string memory _telephone) public {\n    // Ensure that the patient has not already created their identity\n    require(patients[msg.sender].created == false, \"Patient identity already exists\");\n\n    // Create the patient identity\n    Patient storage patient = patients[msg.sender];\n    patient.name = _name;\n    patient.birthDate = _birthdate;\n    patient.homeaddress = _homeaddress;\n    patient.email = _email;\n    patient.telephone = _telephone;\n    patient.created = true;\n        // Emit an event to signal that a new patient has been created\n        emit PatientCreated(msg.sender, _name, _birthdate, _homeaddress, _email, _telephone);\n    }\n\n\n/////////////// HealthRecord ///////////\nevent HealthRecordCreated(address indexed patientAddress, address indexed doctorAddress ,uint256 indexed healthRecordId, uint256 height, uint256 weight, string bloodType, string treatmentHash);\nfunction createHealthRecord(address _patientAddress, uint256 _healthRecordId, uint256 _height, uint256 _weight, string memory _bloodType, string memory _treatmentHash) public {\n    require(doctors[msg.sender].authorized, \"You are not an authorized doctor\");\n    // Make sure the patient has an identity created\n    //require(patients[msg.sender].created == true, \"Patient identity not found\");\n    require(patients[_patientAddress].created, \"The patient is not registered\");\n        _healthRecordId = healthRecords[_patientAddress].length + 1;\n        HealthRecord memory healthRecord = HealthRecord(_healthRecordId, _height, _weight, _bloodType, _treatmentHash, msg.sender);\n        healthRecords[_patientAddress].push(healthRecord);\n        emit HealthRecordCreated(_patientAddress, msg.sender, _healthRecordId, _height, _weight, _bloodType, _treatmentHash);\n    \n}\nfunction createDoctor(string memory _name, string memory _hospital) public {\n        require(!doctors[msg.sender].authorized, \"Doctor already exists\");\n        doctors[msg.sender] = Doctor(msg.sender, _name, _hospital, true);\n    }\n////////////// authorized dactors and revok\n function authorizeDoctor(address _doctorAddress) public {\n        require(doctors[msg.sender].authorized, \"You are not an authorized doctor\");\n        doctors[_doctorAddress].authorized = true;\n    }\n\n    function revokeDoctor(address _doctorAddress) public {\n        require(doctors[msg.sender].authorized, \"You are not an authorized doctor\");\n        doctors[_doctorAddress].authorized = false;\n    }    \n/////////////////View HealthData\nfunction viewPatient(address patientAddress) public view returns (string memory, uint256, string memory, string memory, string memory, HealthRecord[] memory) {\n    require(patients[patientAddress].created == true, \"Patient does not exist\");\n    return (patients[patientAddress].name, patients[patientAddress].birthDate, patients[patientAddress].homeaddress, patients[patientAddress].email, patients[patientAddress].telephone, healthRecords[patientAddress]);\n}\n\nfunction getDoctorRecords(address _patientAddress) public view returns (HealthRecord[] memory) {\n        require(doctors[msg.sender].authorized, \"You are not an authorized doctor\");\n        require(patients[_patientAddress].created, \"Patient does not exist\");\n        return healthRecords[_patientAddress];\n    }\n\n}\n",
  "sourcePath": "F:\\TELECOME\\3A\\SR2I\\SR2I305\\project\\health-app\\contracts\\HealthData.sol",
  "compiler": {
    "name": "solc",
    "version": "0.8.19+commit.7dd6d404.Emscripten.clang"
  },
  "schemaVersion": "3.4.13",
  "updatedAt": "2023-04-10T11:24:53.025Z",
  "networkType": "ethereum",
  "devdoc": {
    "kind": "dev",
    "methods": {},
    "version": 1
  },
  "userdoc": {
    "kind": "user",
    "methods": {},
    "version": 1
  }
}